{
  "contractName": "errorHandling",
  "abi": [
    {
      "inputs": [],
      "stateMutability": "nonpayable",
      "type": "constructor"
    },
    {
      "inputs": [
        {
          "internalType": "uint256",
          "name": "x",
          "type": "uint256"
        },
        {
          "internalType": "uint256",
          "name": "y",
          "type": "uint256"
        }
      ],
      "name": "requireExample",
      "outputs": [
        {
          "internalType": "uint256",
          "name": "",
          "type": "uint256"
        }
      ],
      "stateMutability": "view",
      "type": "function",
      "constant": true
    },
    {
      "inputs": [
        {
          "internalType": "uint256",
          "name": "x",
          "type": "uint256"
        },
        {
          "internalType": "uint256",
          "name": "y",
          "type": "uint256"
        }
      ],
      "name": "revertExample",
      "outputs": [
        {
          "internalType": "uint256",
          "name": "",
          "type": "uint256"
        }
      ],
      "stateMutability": "view",
      "type": "function",
      "constant": true
    },
    {
      "inputs": [
        {
          "internalType": "uint256",
          "name": "x",
          "type": "uint256"
        },
        {
          "internalType": "uint256",
          "name": "y",
          "type": "uint256"
        }
      ],
      "name": "assertExample",
      "outputs": [
        {
          "internalType": "uint256",
          "name": "",
          "type": "uint256"
        }
      ],
      "stateMutability": "view",
      "type": "function",
      "constant": true
    }
  ],
  "bytecode": "0x608060405234801561000f575f80fd5b50335f806101000a81548173ffffffffffffffffffffffffffffffffffffffff021916908373ffffffffffffffffffffffffffffffffffffffff16021790555061045f8061005c5f395ff3fe608060405234801561000f575f80fd5b506004361061003f575f3560e01c8063833edc9c14610043578063b304151514610073578063fa53bf6a146100a3575b5f80fd5b61005d600480360381019061005891906102be565b6100d3565b60405161006a919061030b565b60405180910390f35b61008d600480360381019061008891906102be565b610175565b60405161009a919061030b565b60405180910390f35b6100bd60048036038101906100b891906102be565b610217565b6040516100ca919061030b565b60405180910390f35b5f3373ffffffffffffffffffffffffffffffffffffffff165f8054906101000a900473ffffffffffffffffffffffffffffffffffffffff1673ffffffffffffffffffffffffffffffffffffffff1614610161576040517f08c379a00000000000000000000000000000000000000000000000000000000081526004016101589061037e565b60405180910390fd5b818361016d91906103c9565b905092915050565b5f3373ffffffffffffffffffffffffffffffffffffffff165f8054906101000a900473ffffffffffffffffffffffffffffffffffffffff1673ffffffffffffffffffffffffffffffffffffffff1614610203576040517f08c379a00000000000000000000000000000000000000000000000000000000081526004016101fa9061037e565b60405180910390fd5b818361020f91906103c9565b905092915050565b5f3373ffffffffffffffffffffffffffffffffffffffff165f8054906101000a900473ffffffffffffffffffffffffffffffffffffffff1673ffffffffffffffffffffffffffffffffffffffff1614610273576102726103fc565b5b818361027f91906103c9565b905092915050565b5f80fd5b5f819050919050565b61029d8161028b565b81146102a7575f80fd5b50565b5f813590506102b881610294565b92915050565b5f80604083850312156102d4576102d3610287565b5b5f6102e1858286016102aa565b92505060206102f2858286016102aa565b9150509250929050565b6103058161028b565b82525050565b5f60208201905061031e5f8301846102fc565b92915050565b5f82825260208201905092915050565b7f4e6f7420746865206f776e6572000000000000000000000000000000000000005f82015250565b5f610368600d83610324565b915061037382610334565b602082019050919050565b5f6020820190508181035f8301526103958161035c565b9050919050565b7f4e487b71000000000000000000000000000000000000000000000000000000005f52601160045260245ffd5b5f6103d38261028b565b91506103de8361028b565b92508282019050808211156103f6576103f561039c565b5b92915050565b7f4e487b71000000000000000000000000000000000000000000000000000000005f52600160045260245ffdfea2646970667358221220ba73b7fa45b351511b343e20a6a49e9d838952d19c1032d5127aac758ec3dcb664736f6c63430008140033",
  "immutableReferences": {},
  "source": "// SPDX-License-Identifier: MIT\npragma solidity 0.8.20;\n\ncontract errorHandling{\n       address owner ;\n       constructor(){\n           owner=msg.sender;\n       }\n\n       //handling error using require\n   \n    function requireExample(uint x,uint y) external view  returns(uint){\n            require(owner==msg.sender, \"Not the owner\");\n            return x+y;\n            }\n   //handling errors using revert\n    function revertExample(uint x,uint y) external  view  returns (uint){\n        if(owner!=msg.sender){revert(\"Not the owner\");}\n        return x+y;\n    }\n    //handling errors using assert\n      function assertExample(uint x,uint y) external  view  returns (uint){\n        assert(owner==msg.sender);\n        return x+y;\n    }\n}",
  "sourcePath": "/workspaces/Metacraft_Eth-Avax/contracts/ErrorHandling.sol",
  "compiler": {
    "name": "solc",
    "version": "0.8.20+commit.a1b79de6.Emscripten.clang"
  },
  "schemaVersion": "3.4.14",
  "updatedAt": "2023-07-09T09:58:00.611Z",
  "networkType": "ethereum",
  "devdoc": {
    "kind": "dev",
    "methods": {},
    "version": 1
  },
  "userdoc": {
    "kind": "user",
    "methods": {},
    "version": 1
  }
}